:1000000000800020BD010000B50B0000B50B000012
:10001000B50B0000B50B0000B50B0000810B000014
:10002000810B0000810B0000810B0000B50B00006C
:10003000B50B0000810B0000B50B0000710B000038
:10004000B50B0000B50B0000B50B0000B50B0000B0
:10005000B50B0000B50B0000B50B0000B50B0000A0
:10006000B50B0000B50B0000B50B0000B50B000090
:10007000B50B0000B50B0000B50B0000B50B000080
:10008000B50B0000B50B0000B50B0000B50B000070
:10009000B50B0000B50B0000B50B0000B50B000060
:1000A0006D2A0000B50B0000B50B0000B50B000079
:1000B000B50B0000B50B0000B50B0000B50B000040
:1000C000B50B0000B50B0000B50B0000B50B000030
:1000D000B50B0000B50B0000B50B0000B50B000020
:1000E000B50B0000B50B0000B50B0000B50B000010
:1000F000B50B0000B5260000B50B0000ED080000B0
:10010000B50B0000F1190000B50B0000B50B0000A5
:10011000B50B0000B50B0000B50B0000B50B0000DF
:10012000B50B0000B50B0000B50B0000B50B0000CF
:10013000B50B0000B50B0000B50B0000B50B0000BF
:10014000B50B0000B50B0000B50B0000B50B0000AF
:1001500039200000512000006920000081200000AB
:10016000B50B0000210E0000B50B0000B50B000020
:10017000B50B0000B50B0000B50B0000B50B00007F
:10018000B50B0000B50B0000B50B0000B50B00006F
:10019000B50B0000B50B0000B50B0000A91B00005B
:1001A000F91B0000811C00003D1D0000C11D000066
:1001B000B50B0000B50B0000D9040000544B4CF205
:1001C000205210B51A804DF628121A8000BF00BFC9
:1001D00000F0F4FC4F4B4FF010621A604E4A9A60E8
:1001E0004E4ADA604E4B1A6812F4807204D14D49BF
:1001F0000A604FF4A8521A604B4B1A7802F00802BA
:10020000D2B21AB11A7842F008021A70474B484825
:10021000484C2A221A700023474A02E01959995083
:10022000043399188142F9D3444B454A002101E037
:1002300043F8041B9342FBD34249434800231A5816
:100240005A500433B3F5DE7FF9D1404B404A802148
:1002500003F8011B9342FBD13A4A3E4B1A603E4BD6
:100260000A221A703D4B24221A70A02203F8012C96
:100270003B4A137803F00203DBB2002BF9D0384A73
:10028000137803F01003DBB2002BF9D1344A137852
:1002900003F00C03082BFAD1324B03221A704022D0
:1002A0005A702F4A137803F02003DBB2002BF9D0E9
:1002B0002B4A137803F04003DBB2002BF9D02A4B12
:1002C0002A4A1A6002225A60294B20221A70244AB4
:1002D000137803F00C030C2BFAD1264A264B1A6034
:1002E000264B274A1A60072243F8042C62B601F015
:1002F000FFFD0C4B1B68DC0702D5224801F078FD9E
:1003000002F0DCFC00F060FC01F036FFFEE700BF0D
:100310000E20054030800440823F04000100002B85
:1003200010D0034014D0034002D0074000E0074043
:10033000148DFF1FEC3A00006087FF1F148DFF1F14
:100340005C91FF1F0082FF1F0000000000E400E03E
:100350005FE400E008ED00E0005006400140064088
:10036000064006400440064044800440000003016B
:1003700000400640C01005000480044014E000E086
:10038000FF76010000DD6850FFFFFFFFFFFFFFFF6A
:10039000FFFFFFFFFFFFFFFFFFFFFFFFFFFFFFFF6D
:1003A000FFFFFFFFFFFFFFFFFFFFFFFFFFFFFFFF5D
:1003B000FFFFFFFFFFFFFFFFFFFFFFFFFFFFFFFF4D
:1003C000FFFFFFFFFFFFFFFFFFFFFFFFFFFFFFFF3D
:1003D000FFFFFFFFFFFFFFFFFFFFFFFFFFFFFFFF2D
:1003E000FFFFFFFFFFFFFFFFFFFFFFFFFFFFFFFF1D
:1003F000FFFFFFFFFFFFFFFFFFFFFFFFFFFFFFFF0D
:10040000FFFFFFFFFFFFFFFFFFFFFFFFFEFFFFFFFD
:1004100008B548F61450074BC1F6FF701B1A062B9F
:1004200000D808BD40F20003C0F20003002BF8D052
:100430009847F6E7178DFF1F08B548F6145048F6A1
:100440001453C1F6FF70C1F6FF731B1A9B1003EB28
:10045000D373591000D108BD40F20002C0F200026F
:10046000002AF8D09047F6E710B548F61454C1F6C4
:10047000FF74237873B9FFF7CBFF40F20003C0F29B
:1004800000032BB143F6EC20C0F20000AFF3008074
:100490000123237010BD00BF08B540F20003C0F275
:1004A00000034BB143F6EC2048F61851C0F20000AF
:1004B000C1F6FF71AFF3008048F61450C1F6FF702B
:1004C00003682BB140F20003C0F2000303B1984768
:1004D000BDE80840B0E700BFF8B5164B164D1A68E6
:1004E00042F080721A60154B1A6842F001021A60DD
:1004F000134B2E681C680FE0237A63B121682F68C4
:100500000B68204698472A68E388D21B12099A4252
:10051000A28088BFE2806469002CEDD1064B094AB5
:100520001B689B1B1B091380074A11888B4288BFDD
:100530001380F8BDFCED00E0041000E0001000E0C6
:10054000308DFF1F368DFF1F348DFF1F184B1A682B
:1005500042F400621A60174A00231370164A13709F
:10056000164A1370164A1370164A1370164B40F24F
:1005700013321A604FF451725A60144BC0F3443274
:100580001A70C0F347125A7000F01F0004220221B3
:1005900098729A70D9745A7588221A743C22DA704B
:1005A0000B4B40221A700B4B4FF400421A607047FD
:1005B00034800440A28DFF1F398DFF1FA88DFF1FBF
:1005C000A38DFF1F388DFF1F0CB0044000B0064004
:1005D0002FE400E004E100E0134A937800F0030107
:1005E00003F0EC030B43410748BF43F01003937043
:1005F00000F00F03042B0C4903D18B7943F0400327
:100600008B715379C20603F0EF03074A48BF43F0EA
:10061000100353719379810603F0EF0348BF43F051
:1006200010039371704700BF00B006400E4B1B686B
:10063000180510B503D410BD00F0EEFA00E00B4C25
:100640002378002BF8D10A4A4FF400411160094A7F
:100650000949D37040F203120A604A60074A1370D6
:10066000074A137010BD00BF34800440388DFF1F4F
:1006700084E100E000B006400CB00440A28DFF1FF2
:10068000398DFF1F38B5094B04461D78002DFCD16C
:100690002046012101F0DCFB2046294601F0B8FB91
:1006A000034B53F83420034B1A6038BD388DFF1FBD
:1006B000E8370000A48DFF1F1D4B1B681A052DE9AC
:1006C000F041074631D51B4B1B680BB101221A7054
:1006D000194B1A4D1C781A4EDFF868800134272C0C
:1006E00088BF002414E000F079FA40280CDC33794C
:1006F0001B060DD52B780133272B88BF002318F854
:100700000320F2712B7003E0FF2801DD00F084FA72
:100710002B78A342E7D00B4B1F550B4B01221A70CD
:10072000054B1C70064BBC22DA70BDE8F08100BF9F
:1007300034800440A48DFF1FA88DFF1FA38DFF1FD1
:1007400000B006403A8DFF1F388DFF1F2DE9F84F8E
:10075000254B1B6806461805894642D5234B1B6866
:100760000BB101221A70224DB346AA4632E0214B4A
:100770001C782F780134272C88BF0024A74209D089
:100780001BF8012B1C4B1A551C4B01221A70194BDC
:100790001C701FE01A4BBC22DA70984600F01EFA5B
:1007A00040280FDC98F8043019060FD52B78124A30
:1007B0000133272B88BF0023D25C88F807208AF8F2
:1007C000003003E0FF2801DD00F026FA2B78BB4261
:1007D000E4D0D5E706EB09039B45C8D3084BBC2200
:1007E000DA70BDE8F88F00BF34800440A48DFF1F8D
:1007F000A38DFF1FA88DFF1F3A8DFF1F388DFF1F90
:1008000000B0064010B5044C01E000F005FA237872
:10081000002BFAD110BD00BF388DFF1F054B064AD3
:100820001B781078834201D3273000E00138C01ACA
:10083000704700BFA88DFF1FA38DFF1F044B1878C2
:10084000044B1B78984238BF4030C01A704700BF35
:10085000A28DFF1F398DFF1F084B094A19781378A5
:10086000994207D001333F2B88BF00230549C85C5C
:10087000137070474FF0FF30704700BFA28DFF1F0D
:10088000398DFF1F628DFF1F074B1A78074B1B78AE
:100890009A4206D001333F2B88BF0023044AD05C24
:1008A00070474FF0FF307047A28DFF1F398DFF1F3B
:1008B000628DFF1F094B1B681B050ED5084BDA78AC
:1008C00002F0CB02DA7040225A74DA7842F0340235
:1008D000DA70044B1A78044B1A7070473480044065
:1008E00000B00640398DFF1FA28DFF1F70B52D4B44
:1008F0001A7912F0300F1DD072B6997D21B9DA79CC
:1009000040225A7462B615E062B6274A2748127828
:10091000274D00781C46531C3F2B88BF0023E679E7
:1009200083421CBFEE541A46013911F0FF01F2D187
:100930001D4B1A701B4AD37819465BB2002B1BDA89
:100940001379180618D51B4B1B4C1D781B4B1B78B5
:10095000AB4209D00133272B88BF00231079E05C1C
:10096000D071107D0728F3D9144A13700D4B1A79F2
:10097000120601D57C22DA7001F04003DBB27BB1B4
:10098000084B1A7902F04002D2B2194642B10C4B20
:1009900000221A700B4B1B6803B11A703C23CB70FA
:1009A00070BD00BF00B00640A28DFF1F398DFF1F34
:1009B000628DFF1FA88DFF1F3A8DFF1FA38DFF1FA4
:1009C000388DFF1FA48DFF1F08B50368C9B21B68CF
:1009D000984708BD08B50368C9B21B68984708BDA9
:1009E00008B50368C9B21B68984708BD08B5036815
:1009F000C9B21B68984708BD08B50368C9B21B682F
:100A0000984708BD08B50368C9B21B68984708BD78
:100A100008B50368C9B21B68984708BD08B50368E4
:100A2000C9B21B68984708BD084608B5FFF744FEE1
:100A3000012008BD084608B5FFF73EFE012008BDAD
:100A400038B508460D4601F0FFFB0446214628460E
:100A5000FFF77CFE204638BD10B508461446114607
:100A6000FFF774FE204610BDFFF7D8BEFFF722BF88
:100A7000FFF7C8BEFFF7F0BEFFF706BFFFF7DEBE09
:100A80000846FFF7FFBDFFF7D1BD480800F137600A
:100A900000F5D830B0FBF1F0FFF758BD480800F181
:100AA000376010B500F5D830B0FBF1F01446FFF711
:100AB0004DFD2046BDE81040FFF78EBD084608B545
:100AC00001F0DEFC012008BD084608B501F0D8FCA5
:100AD000012008BD38B508460D4601F0B5FB0446B7
:100AE0002146284601F016FD204638BD10B50846BF
:100AF0001446114601F00EFD204610BD01F072BDF6
:100B000001F0BCBD01F062BD01F08ABD01F0A0BDE5
:100B100001F078BD084601F099BC01F06BBC4808B3
:100B200000F1376000F5D830B0FBF1F001F0F2BB16
:100B3000480800F1376010B500F5D830B0FBF1F08F
:100B4000144601F0E7FB2046BDE8104001F028BC48
:100B50007047FFFF044B00221A711A73034A4FF4C7
:100B60007A7199601A607047AC8DFF1F9037000052
:100B7000024B1A6801321A60704700BFCC8FFF1F0A
:100B800038B50B4C25462368580301D500F048F9C9
:100B90002B68590501D501F08DFD2B681A0501D58B
:100BA000FFF7A4FE2368DB04EDD500F021FFEAE7A0
:100BB0003480044008B5FFF7E3FFFFFF014B10222C
:100BC0001A807047002005407047FFFF024A1368F3
:100BD00018181060184670476487FF1FEFF31383DF
:100BE0009BB9EFF3108098B9EFF3058323B10F2B76
:100BF00004D9084A985C01E04FF48070EFF3118348
:100C00003BB1984228BF184670474FF0FF307047FD
:100C100018467047F0E300E008B50E4B1A78C2B9E9
:100C200001221A7000F0ACFC08B101F0F6F901F0F5
:100C3000E9FC08B101F0ACFDFFF700FE08B1FFF7D9
:100C400087FF00F08FFE08B101F014FE014B002277
:100C50001A7008BDBC8DFF1F10B5044601F04AFA9A
:100C6000204610BD04480549054A0023037080232F
:100C7000437302F013B800BFC08DFF1F590C000072
:100C80006087FF1FF0B50C4B0C4C1A7842F0020540
:100C900004EBC50682F00102706009481A700678FC
:100CA000002E0CBF8827C82747EA014186F00106BD
:100CB00044F835100670F0BD3C8EFF1F0080FF1F0A
:100CC000B48EFF1F431E032B10B510D872B6094A0D
:100CD00052F8230048B1416842F82310064A0188BF
:100CE00032F81340611A22F8131062B610BD0020CA
:100CF00010BD00BF2C8EFF1F4891FF1F0138032835
:100D00000BD872B6064B53F82030002001E05B6828
:100D10000130002BFBD162B670470020704700BF46
:100D2000808EFF1F70B572B6184E194C01239A19A8
:100D300012F8012C02F00802D2B2E2B19900144A72
:100D400054F831502DB902EB431308305860114B61
:100D500009E041F0010154F8315065B902EBC103DB
:100D6000083058600C4B42F831300C4B1A78013A7D
:100D70001A7062B670BD0133052BD8D162B6074B2D
:100D800000221A70BDE8704001F0A2BA20390000BC
:100D90000080FF1F88004000C8004000AA8EFF1F8F
:100DA000431E032B30B532D84001194A40F01000E1
:100DB000101872B6174CE25C032A09D8DFE802F07B
:100DC000160218050830022213E00830042210E051
:100DD0001148124A50F8234014B940F8231002E099
:100DE00052F82300416042F823100FE0032200E094
:100DF0000522E25410F0080F01F108030A8843604D
:100E00000CBF8823C82343EA0243036062B630BDA7
:100E10000080FF1FE88DFF1F808EFF1F908EFF1F39
:100E20002DE9F74FA54EA64C357805F00403DBB24B
:100E3000ABB1A44B1B7883B1A34A137823B1013B18
:100E4000DBB2137003B900BEA04A13782BB1013B8B
:100E5000DBB213700BB900F03FFC0423337005F0D4
:100E60000802D2B2002A00F08082994B1B781D093B
:100E70004FEA930940F0FE8104EBC903586854F827
:100E80003930C3F38303013B0C2B00F2F081DFE820
:100E900013F0A901A901EE01EE01EE01EE01EE0150
:100EA000EE01C501EE01EE01EE010D004368894936
:100EB00002684B60884B894844F83930884D0A6095
:100EC000002303600120287092B240F28165AA429B
:100ED0002361A36117D8B2F5D06F80F02C81B2F5F1
:100EE000817F00F0DC8006D8802A00F0C280822A50
:100EF00040F03D81C1E040F202339A4200F00C81A3
:100F0000B2F5A06F16E042F22105AA4200F0678117
:100F100008D8B2F5086F00F0A680B2F5106F40F067
:100F200026810AE042F22120824200F01C8142F236
:100F300021339A4240F01B811DE18A78614B604D5C
:100F40001A702B6A180603D5686A083801F0C0F9D0
:100F5000644A08359542F4D1DFF8B091DFF8B0B1BA
:100F60000025A846CA4655F8090005E043680093E5
:100F700001F0AEF9009B18460028F7D15A4B4AF809
:100F8000050045F80B00E85807E04268009301921D
:100F900001F09EF9019A009B10460028F5D15851A6
:100FA000524BE850524B23F81800524B18F80320CC
:100FB000023A032A08D8DFE802F002040204002201
:100FC00000E0012203F8082008F101080435B8F117
:100FD000040FC8D1484BDFF83C9100221A7001255C
:100FE0009846464B05EB0902EB1812F8012C9B00C2
:100FF0001A7002F00802D2B23AB301F04BF9AB001A
:1010000038B104EB4512083050603D4A44F83320B3
:1010100006E044F8330098F80030013388F80030D7
:1010200001F038F9AB0043F0010338B104EBC3021F
:1010300008305060284A44F8332006E044F8330072
:1010400098F80030013388F80030AA0042F002011D
:10105000013542F003020023052D44F8313044F8F5
:101060003230BED188E0174B264D1B782B700346DB
:1010700085E0244D2B706B7080E08A88042A00D9AB
:1010800075E0204D2B706B701F4B9200D3181B78AE
:1010900003F00203DBB2002B70D028706EE08A8868
:1010A00002F07F03042B62DC4B8803B15FE0910008
:1010B000154A8A18117821F0020156E08020074075
:1010C0000080FF1FB38EFF1F3D8EFF1FB58EFF1FD9
:1010D00090200740A08EFF1FC8004000D48DFF1F46
:1010E000B48EFF1F8080FF1F808EFF1F908EFF1F1A
:1010F0004891FF1FE88DFF1FAA8EFF1F30C8011007
:1011000088004000AB8EFF1FC02007402C8EFF1FC1
:10111000D88DFF1F203900008A8802F07F03042B3E
:1011200025DC4B8803B122E09100A14A8A1811788E
:1011300041F0020119E04A889E4B898853F8085C07
:10114000A3F10C009DB133F80CCC944509D133F8D0
:101150000ACC8C4505D1120A032A0CBF2B780389CF
:101160000DE00C33EAE78978934A117004E0904B64
:101170000F221A7033E000231D4600E002238F4A3D
:10118000B2F806904B4538BF9946B9F1400F34BFCD
:10119000C8464FF0400828464146FFF773FDB9EBBB
:1011A0000809454403D1B8F1400F07D017E0B9F161
:1011B000400F34BFC8464FF0400800E0C8462846FC
:1011C0004146FFF75FFDB9EB0809454402D1B8F18C
:1011D000400F04D17A4B7B4A1D60A2F80090012297
:1011E000794B43E0754B1A8842F221039A4211D1A0
:1011F000764A0023C15C99540133072BFAD1734B13
:101200001B68862B02D1724B0F221A7000200146F8
:10121000FFF738FD6F4B44F8393028E0684BD3F8BE
:101220000080B8F1000F18D0DFF89891B9F800A04D
:10123000BAF1400F34BF5546402540462946FFF7D6
:1012400021FDC5EB0A039BB2A9F800300BB9402D74
:1012500001D108EB05035A4A1360584B1A88B2F5BE
:10126000A06F04D100225A709A785B4B1A70012249
:10127000554B6DE004EBC90803F00803D8F80420CF
:10128000013DD9B2A2F10800EDB2002937D001F03A
:101290001FF85248524B50F82510F1B14A6840F8F7
:1012A000252001F10802C8F804205A5D032A0BD852
:1012B000DFE802F002040608032204E0022202E052
:1012C000052200E004225A5518F0080F0A880CBFC6
:1012D0008823C82343EA024342E05A5D032A07D821
:1012E000DFE802F040400204002206E0012204E0B0
:1012F00018F0080F0CBF022203225A5532E054F8AE
:1013000039301B0C22F8083C23B322F8061C42F8A3
:10131000041C344A344952F8257017B942F82500A4
:1013200002E051F825205060304A41F8250032F89B
:1013300015105B1822F8153000F0ACFF18B108301A
:10134000C8F8040006E02A4B44F839001A78013244
:101350001A7007E01F4B274A18F0080F08BF134602
:1013600044F83930082333705EE5E90752D5164951
:101370002048214C02230B70204B1A70204B186020
:10138000986020481A61D8609A615C60084B0D2013
:1013900018701D48FF23037000F8083C02741B4AB4
:1013A00013701B4B9F221A7001230B704BE000BF80
:1013B000C020074030390000C48EFF1FA08EFF1FE1
:1013C000D48DFF1FA88EFF1F942007405091FF1F50
:1013D0003D8EFF1FC800400098200740808EFF1FF1
:1013E000E88DFF1F2C8EFF1FD88DFF1F4891FF1F18
:1013F000AA8EFF1F88004000EC8DFF1F3C8EFF1F50
:101400000080FF1F408EFF1F882007408C20074070
:10141000842007402B0605D50C4B0D221A70802224
:1014200003F8402C05F00203DBB22BB1084B1A780D
:101430001A70022203F8082C05F01005EDB215B160
:10144000044B10221A70BDE8FE8F00BFC020074079
:10145000882007408020074008B500F055FE002393
:101460001E491A465A50C8180833882B4260F9D1D1
:101470001B4B1A6842F480221A601A4B80221A70A1
:101480001978184A0906FBD4144B1749C3F30720EF
:101490000870C3F307401B0E08750B76FF2301F895
:1014A0001C3C01F8143C01F88C3C137843F04003D9
:1014B00013700021012302F8783C02F80C1C02F89A
:1014C000883C0A4B70226FF4507C1A7063444FF4CE
:1014D00000721A60064B10221A7008BD0080FF1FB0
:1014E000348004400C2107409C20074049E400E080
:1014F0000821074038B5114C23684BB10F4D2868BF
:101500004288811801320C7A01888A4212D30CE099
:101510000B4B1B7813B94FF0FF340CE00320FFF79F
:10152000D1FB20600028E9D1F5E700F0D1FE0023CF
:101530002B6000E04280204638BD00BFC08EFF1FF8
:10154000B38EFF1F10B50C4C23681BB10A4B1B68F0
:101550006BB902E0094B1B7813B94FF0FF3010BD97
:101560000320FFF7AFFB20600028EFD1F5E75A8892
:101570009B18187A10BD00BFC08EFF1FB38EFF1FCF
:10158000044B9888044B1B681BB11A885B88D31ADC
:10159000C01870474891FF1FC08EFF1F2DE9F84308
:1015A0002D4B2E4DDFF8C08001220C461A700646E6
:1015B0004BE02B682BBBDFF8A0904AF2F92798F894
:1015C000003013B9244A137014E00420FFF796FB8F
:1015D000072808D8012389F8003000F05BFE286056
:1015E00078B989F80000013F1D4B01D01A782AB163
:1015F00001221A704FF0FF30BDE8F883FFF70CFBB3
:10160000DDE72968164A488800231370C0F14002BC
:10161000944238BF224600F108078018CF1948804D
:10162000A41A02E0F05CF85401339342FAD1F618A0
:101630004B883F2B06D940230B800420FFF7B0FBDB
:1016400000232B60074B05221A70002CB1D1024BEE
:1016500020461C70BDE8F883B68EFF1FB88EFF1FB2
:10166000BC8EFF1FB58EFF1FB38EFF1F07B502ABE9
:10167000012103F8010D1846FFF790FF0EBDFFFF93
:10168000F8B5114B1B78EBB1104E114B3468114D6E
:1016900001271F704CB1638800272F70042023801E
:1016A0002146FFF77DFB376009E000F0F3FD0146BE
:1016B00020B104202C70FFF773FB00E02F70044B67
:1016C00000221A70F8BD00BFB38EFF1FB88EFF1F37
:1016D000B68EFF1FB58EFF1F38B50D4B1D78ADB907
:1016E0000C4C216831B14B8804200B80FFF758FB6C
:1016F000256038BD00F0CEFD014620B10420BDE8D4
:101700003840FFF74DBB044B01221A7038BD00BFB3
:10171000B68EFF1FB88EFF1FB58EFF1F174B1A68BE
:1017200042F480521A60164A00231370154A13704F
:10173000154A1370154A1370154A1370154A40F272
:10174000133111604FF451715160134AC0F34431A9
:101750001170C0F3471100F01F0051709072937028
:1017600013742C23D3700D4B40226FF44B711A70FD
:101770005B184FF400321A60704700BF3480044099
:101780002F8FFF1FC68EFF1F388FFF1F308FFF1F49
:10179000C58EFF1F08C0044000C0064031E400E0D1
:1017A000134A937800F0030103F0EC030B43410765
:1017B00048BF43F01003937000F00F03042B0C4953
:1017C00003D18B7943F040038B715379C20603F048
:1017D000EF03074A48BF43F0100353719379800623
:1017E00003F0EF0348BF43F010039371704700BF4D
:1017F00000C006400E4B1B68D80410B503D410BDC2
:10180000FFF70AFA00E00B4C2378002BF8D10A4AC4
:101810004FF400311160094A0949D37040F20312B4
:101820000A604A60074A1370074A137010BD00BF70
:1018300034800440C58EFF1F84E100E000C00640F4
:1018400008C004402F8FFF1FC68EFF1F38B5094BFD
:1018500004461D78002DFCD12046012100F0F8FA45
:101860002046294600F0D4FA034B53F83420034BAA
:101870001A6038BDC58EFF1FE8370000348FFF1F88
:101880001D4B1B68DA042DE9F041074631D51B4B8F
:101890001B680BB101221A70194B1A4D1C781A4E95
:1018A000DFF868800134272C88BF002414E0FFF79C
:1018B00095F940280CDC33791B060DD52B780133C4
:1018C000272B88BF002318F80320F2712B7003E048
:1018D000FF2801DDFFF7A0F92B78A342E7D00B4BDF
:1018E0001F550B4B01221A70054B1C70064BAC2286
:1018F000DA70BDE8F08100BF34800440348FFF1FF0
:10190000388FFF1F308FFF1F00C00640C78EFF1F9C
:10191000C58EFF1F38B54518044603E014F8010BC7
:10192000FFF7AEFFAC42F9D138BDFFFF10B5044C54
:1019300001E0FFF771F92378002BFAD110BD00BF49
:10194000C58EFF1F054B064A1B781078834201D3D2
:10195000273000E00138C01A704700BF388FFF1FE2
:10196000308FFF1F044B1878044B1B78984238BF08
:101970004030C01A704700BF2F8FFF1FC68EFF1F59
:10198000084B094A19781378994207D001333F2B45
:1019900088BF00230549C85C137070474FF0FF30C3
:1019A000704700BF2F8FFF1FC68EFF1FEF8EFF1FD8
:1019B000074B1A78074B1B789A4206D001333F2B0E
:1019C00088BF0023044AD05C70474FF0FF30704757
:1019D0002F8FFF1FC68EFF1FEF8EFF1F024B1A783F
:1019E000024B1A70704700BFC68EFF1F2F8FFF1F5C
:1019F00010B5214B1A7902F02002D2B26AB11F4A07
:101A0000D8791F491378097801333F2B88BF002309
:101A10008B4202D01B49C8541370174AD37818461A
:101A20005BB2002B13DA1379190610D5164B174940
:101A30001C780B789C4202D16C23D37007E00133F1
:101A4000272B88BF0023124CE45CD4710B7000F08C
:101A50004003DBB27BB1084B1A7902F04002D2B2EC
:101A6000194642B10B4B00221A700B4B1B6803B195
:101A70001A702C23CB7010BD00C006402F8FFF1FA3
:101A8000C68EFF1FEF8EFF1F388FFF1F308FFF1F87
:101A9000C78EFF1FC58EFF1F348FFF1F2DE9F0413A
:101AA000002407460D4626463B190A221979284686
:101AB000002300F06BFA2B6880462E211B68284615
:101AC000984701344044032C0644EDD12846F97967
:101AD0000A22002300F05AFA8019BDE8F081FFFFC6
:101AE000044B054A1A6000221A715A719A71DA7110
:101AF000704700BF3C8FFF1FE0370000084B4FF4DA
:101B000000021A604FF080721A604FF000721A6083
:101B10004FF080621A604FF000621A60704700BF99
:101B200008E100E0212830B521D8042A1FD8DFE8D9
:101B300002F00709050B03000B2306E00A2304E06B
:101B4000082302E00C2300E00923094A02EBC0024B
:101B5000526872B61468074D24F47024146044F07F
:101B6000807444EA034345F82010136062B630BD28
:101B7000E8370000448FFF1F094B03EBC0035B688D
:101B800072B61A6822F0877222F4803242F08072B4
:101B90001A60044B002243F8202062B6704700BF51
:101BA000E8370000448FFF1F114B10B51C68E0049C
:101BB0001C6004D50F4BDA680AB1DB689847A104B2
:101BC00004D50C4B1A690AB11B699847A20604D5C3
:101BD000084B1A6E0AB11B6E9847E30606D5054BF3
:101BE000D3F8842012B1D3F88430984710BD00BFD9
:101BF000A0900440448FFF1F1F4B10B51C68E003EA
:101C00001C6004D51D4B1A680AB11B689847A103D4
:101C100004D51A4B5A680AB15B689847E20704D5A5
:101C2000164B1A6C0AB11B6C9847A30704D5134BCB
:101C30005A6C0AB15B6C9847200704D50F4B9A6C1D
:101C40000AB19B6C9847610704D50C4BDA6C0AB15A
:101C5000DB6C9847220304D5084B5A6E0AB15B6EC1
:101C60009847630306D5054BD3F8802012B1D3F80B
:101C70008030984710BD00BFA0A00440448FFF1FD4
:101C80002C4B10B51C6820071C6004D52A4B5A6ADF
:101C90000AB15B6A9847E10604D5274B9A6A0AB1F4
:101CA0009B6A9847620604D5234BDA6A0AB1DB6A5D
:101CB0009847230604D5204B1A6B0AB11B6B984733
:101CC000A00604D51C4B5A6B0AB15B6B9847E10721
:101CD00004D5194BDA6B0AB1DB6B9847A20704D520
:101CE000154B9A6D0AB19B6D9847630704D5124B4B
:101CF000DA6D0AB1DB6D9847A00504D50E4BDA6E9C
:101D00000AB1DB6E9847E10504D50B4B1A6F0AB197
:101D10001B6F9847620504D5074B5A6F0AB15B6F7A
:101D20009847230504D5044B9A6F0AB19B6F9847D7
:101D300010BD00BFA0B00440448FFF1F1E4B10B564
:101D40001C68E0071C6004D51C4B9A680AB19B68AC
:101D50009847210604D5194B5A690AB15B6998471F
:101D6000E20604D5154B9A690AB19B699847630747
:101D700004D5124BDA690AB1DB699847200704D50C
:101D80000E4B1A6A0AB11B6A9847A10704D50B4B80
:101D90009A6B0AB19B6B9847A20604D5074B1A6D44
:101DA0000AB11B6D9847630604D5044B5A6D0AB1FE
:101DB0005B6D984710BD00BFA0C00440448FFF1F5B
:101DC000094B10B51C68A2071C6004D5074B9A6E1E
:101DD0000AB19B6E9847E30704D5044BDA6F0AB14A
:101DE000DB6F984710BD00BFA0D00440448FFF1F99
:101DF000044B054900221A600A60044A1060102250
:101E00001A60704714D0034004D0034000D0034050
:101E1000212810B518D80D4A52F8303093F8804276
:101E20003CB1012211B183F8802010BD83F800215C
:101E300010BD02EBC00043681A6811B142F0030202
:101E400001E022F002021A6010BD00BFE837000076
:101E5000212816D80B4A02EBC00301295B6852F80F
:101E6000302004D182F880124FF4A27208E00020E2
:101E700082F8800211B94FF4807201E040F203123F
:101E80001A607047E837000072B60B4B0B491A68AE
:101E90000B4B1B68096862B6490102D5322A88BF1C
:101EA0000133C2F5BB32FF326021B2FBF1F24FF4D5
:101EB0007A7000FB0320704718E000E004ED00E0BA
:101EC000CC8FFF1F70B50446FFF7DEFF05466CB1EF
:101ED00040F2E736FFF7D8FF401BB04203D9013C80
:101EE00004D005F57A75FEF797FEF3E770BDFFFFA6
:101EF00010B5FFF703FE164B164A174C00204BF6A1
:101F0000FF71186059602823136093601361936117
:101F10001362936213639363092222600F4C206063
:101F20006160A360236144F8042C0D4C20600D48CF
:101F300001600D490B608B600C4B1A6000F024F9B6
:101F40000420FFF7BFFFBDE81040FFF785BA00BFD0
:101F5000048003400C800340008003400490034051
:101F600004800B4008800B400C800B4000800B402D
:101F700007B5054B1B88ADF80430036801A95B6801
:101F8000022298470EBD00BFF8380000F0B50546A4
:101F90008BB022B90368C9B21B6898472CE0012AAC
:101FA00008BF0A2221B930228DF82520212413E010
:101FB0002124B1FBF2F002FB1011C9B2092901D8AA
:101FC000303100E037310AAF3E1906F8241C0146D3
:101FD00010B1013CE4B2ECE733B1013C0AAAE4B22F
:101FE00013192D2203F8242C2B6801AF5B682846B7
:101FF0003919C4F1220298470BB0F0BD08461146CA
:10200000FFF7CCBA0846FFF731BBFFF739BBFFF744
:1020100099BAFFF76FBAFFF7B3BA7047044B0022C3
:102020001A711A73034A4FF47A7199601A607047F3
:10203000D08FFF1F0839000008B5034B01221A603A
:10204000024B1B68984708BD0C710340E88FFF1FC7
:1020500008B5034B01221A60024B5B68984708BD24
:102060001C710340E88FFF1F08B5034B01221A6063
:10207000024B9B68984708BD2C710340E88FFF1FF7
:1020800008B5034B01221A60024BDB68984708BD74
:102090003C710340E88FFF1F054B01221A60054B7E
:1020A0001A6822F400021A60034B00221A7070476B
:1020B000007003403C800440E48FFF1F037B01223B
:1020C000591103F01F0302FA03F3084A42F82130C2
:1020D0008268002313604178054A5354D15C21B9CA
:1020E0000133042BFAD1FFF7D7BF704780E100E03E
:1020F000E08FFF1F037810B504460BB1FFF7DEFF3A
:102100000023237010BDFFFF1FB572B6154B702260
:102110001A70154A412111700F2102F8011C80220A
:102120001A701A781206FCD5104B186862B6104B5C
:10213000984201D80A23584301A90A2200F08CF8DA
:102140000C48002301AA9A5C2AB100EB4301013339
:102150000A2B4A80F6D10133064A5B00137005B0A2
:1021600000BD00BF0000024007000240080002401E
:102170007F969800F087FF1F08B500F058FD00F02B
:102180005BFDFEF749FDFAE7224B60221A70E1225F
:102190005A70214B214A1978214B082901D101217C
:1021A00002E00A2907D13921116013221A601D4B60
:1021B00019605A600BE00C291A4901D1352000E062
:1021C0003D20106012221A60174B08601A60174BEE
:1021D00017491B78174A03B101230B601360164B94
:1021E000164A1978164B012901D880210CE00429E0
:1021F00001D8842108E0082901D8852104E01029AC
:1022000001D8862100E08721116019600D4B012261
:102210001A707047004007400688FF1F08B003404F
:102220000CB0034008B00B400CB00B40F98FFF1FFF
:1022300020B0034020B00B400788FF1F24B00340AC
:1022400024B00B40F88FFF1F002300E00133C25C75
:10225000002AFBD11846704710B50023B0FBF2F4FA
:1022600002FB1400092801D8303000E03730C85490
:1022700020460CB10133F1E7CA185470224605E03C
:10228000885CCC5C8C54C8540132013B9A42F7DB29
:10229000084610BD72B60C4A1168B1FA81F30B2BD7
:1022A00002D962B6002070474FF0004020FA03F0D8
:1022B00021EA0001116062B6044948225343C8185C
:1022C0000022CA50426070470888FF1F0084FF1F29
:1022D0000C4B4822C31AB3FBF2F30B2B11D80A4A5A
:1022E000127822B1094A12780AB1FEF71BBD72B604
:1022F000074A4FF0004121FA03F3116819431160B6
:1023000062B670470084FF1FAA8EFF1FB38EFF1FA7
:102310000888FF1F194B1A6842F480621A60184A35
:1023200000231370174A1370174A1370174A13705B
:10233000174A1370174B40F213321A604FF4517260
:102340005A60154BC0F344321A70C0F347125A70EA
:102350000221042200F01F0098729A70D9745A75F5
:1023600088221A743C22DA700C4B40226FF44A71B6
:102370001A705B184FF400521A60704734800440A2
:102380007C90FF1FFB8FFF1F8490FF1F7D90FF1F1E
:10239000FA8FFF1F40A0044000A006402DE400E09B
:1023A000134A937800F0030103F0EC030B43410759
:1023B00048BF43F01003937000F00F03042B0C4947
:1023C00003D18B7943F040038B715379C20603F03C
:1023D000EF03074A48BF43F0100353719379800617
:1023E00003F0EF0348BF43F010039371704700BF41
:1023F00000A006400E4B1B68580510B503D410BD55
:10240000FEF70AFC00E00B4C2378002BF8D10A4AB7
:102410004FF400511160094A0949D37040F2031288
:102420000A604A60074A1370074A137010BD00BF64
:1024300034800440FA8FFF1F84E100E000A00640D2
:1024400040A004407C90FF1FFB8FFF1F38B5094B55
:1024500004461D78002DFCD120460121FFF7F8FC31
:1024600020462946FFF7D4FC034B53F83420034B96
:102470001A6038BDFA8FFF1FE83700008090FF1FF9
:102480001D4B1B685A052DE9F041074631D51B4B02
:102490001B680BB101221A70194B1A4D1C781A4E89
:1024A000DFF8688001343F2C88BF002414E0FEF779
:1024B00095FB40280CDC33791B060DD52B780133B6
:1024C0003F2B88BF002318F80320F2712B7003E024
:1024D000FF2801DDFEF7A0FB2B78A342E7D00B4BD2
:1024E0001F550B4B01221A70054B1C70064BBC226A
:1024F000DA70BDE8F08100BF348004408090FF1F97
:102500008490FF1F7D90FF1F00A00640FC8FFF1FDF
:10251000FA8FFF1F2DE9F84F254B1B68064658051B
:10252000894642D5234B1B680BB101221A70224DFC
:10253000B346AA4632E0214B1C782F7801343F2C59
:1025400088BF0024A74209D01BF8012B1C4B1A5549
:102550001C4B01221A70194B1C701FE01A4BBC2235
:10256000DA709846FEF73AFB40280FDC98F8043002
:1025700019060FD52B78124A01333F2B88BF002351
:10258000D25C88F807208AF8003003E0FF2801DDDC
:10259000FEF742FB2B78BB42E4D0D5E706EB0903FC
:1025A0009B45C8D3084BBC22DA70BDE8F88F00BF4A
:1025B000348004408090FF1F7D90FF1F8490FF1F98
:1025C000FC8FFF1FFA8FFF1F00A0064010B5044CC0
:1025D00001E0FEF721FB2378002BFAD110BD00BFEC
:1025E000FA8FFF1F054B064A1B781078834201D3F0
:1025F0003F3000E00138C01A704700BF8490FF1FD1
:102600007D90FF1F044B1878044B1B78984238BF0D
:102610004030C01A704700BF7C90FF1FFB8FFF1F28
:10262000084B094A19781378994207D001333F2B98
:1026300088BF00230549C85C137070474FF0FF3016
:10264000704700BF7C90FF1FFB8FFF1F3C90FF1F58
:10265000074B1A78074B1B789A4206D001333F2B61
:1026600088BF0023044AD05C70474FF0FF307047AA
:102670007C90FF1FFB8FFF1F3C90FF1F094B1B68C7
:102680005B050ED5084BDA7802F0CB02DA704022F7
:102690005A74DA7842F03402DA70044B1A78044B38
:1026A0001A7070473480044000A00640FB8FFF1F63
:1026B0007C90FF1F70B52D4B1A7912F0300F1DD092
:1026C00072B6997D21B9DA7940225A7462B615E062
:1026D00062B6274A27481278274D00781C46531CBB
:1026E0003F2B88BF0023E67983421CBFEE541A4675
:1026F000013911F0FF01F2D11D4B1A701B4AD3783A
:1027000019465BB2002B1BDA1379180618D51B4B40
:102710001B4C1D781B4B1B78AB4209D001333F2B60
:1027200088BF00231079E05CD071107D0728F3D9B1
:10273000144A13700D4B1A79120601D57C22DA70F7
:1027400001F04003DBB27BB1084B1A7902F0400282
:10275000D2B2194642B10C4B00221A700B4B1B68C7
:1027600003B11A703C23CB7070BD00BF00A00640BF
:102770007C90FF1FFB8FFF1F3C90FF1F8490FF1F6B
:10278000FC8FFF1F7D90FF1FFA8FFF1F8090FF1FA0
:102790007047FFFF044B00221A711A73034A4FF46B
:1027A0007A7199601A6070478890FF1F8039000025
:1027B00008B50368C9B21B68984708BD08B5036827
:1027C000C9B21B68984708BD08B50368C9B21B6841
:1027D000984708BD08B50368C9B21B68984708BD8B
:1027E000084608B5FFF74CF8012008BD084608B5B3
:1027F000FFF746F8012008BD38B508460D46FFF73B
:1028000023FD044621462846FFF784F8204638BDBC
:1028100010B5084614461146FFF77CF8204610BD57
:10282000FFF790B8FFF7DAB8FFF780B8FFF7A8B85E
:10283000FFF7BEB8FFF796B80846FFF707B8FEF7F0
:10284000D9BF480800F1B76000F55840B0FBF1F07F
:10285000FEF764BF480800F1B76010B500F55840B6
:10286000B0FBF1F01446FEF759FF2046BDE81040DA
:10287000FEF796BF7047FFFF044B00221A711A73D0
:10288000034A4FF47A7199601A6070479890FF1F5D
:10289000D0390000094B1B7813B9094B1B782BB1B9
:1028A000084A1378202B03D90123037100207047B5
:1028B0000548C15401331370012070470E91FF1F6A
:1028C000D190FF1F0F91FF1FB090FF1F7047FFFFB8
:1028D000024B1878024B1B78C01A70470D91FF1FEE
:1028E0000C91FF1F064A074913780978994204D9C9
:1028F0000549C85C0133137070474FF0FF307047D3
:102900000C91FF1F0D91FF1FD290FF1F054B064A30
:102910001B7812789A4202D9044AD05C70474FF073
:10292000FF3070470C91FF1F0D91FF1FD290FF1FCA
:1029300038B50E4B1B78144613B90D4B1B788BB171
:102940000C4B1D78C5F121039C4202D90122027172
:102950001C4609482246401900F0B8FC054B2D19C9
:102960001D7000E01C46204638BD00BF0E91FF1FC1
:10297000D190FF1F0F91FF1FB090FF1F10B5104B9C
:102980001B7813F020040BD11220FFF7F5F80D4B44
:102990001B68A3B10C4A14700C4A1078984710BDFC
:1029A0000B4A13780133DBB2012B137002D8094BA9
:1029B0001B7823B91220BDE81040FFF7DDB810BD29
:1029C00003600640AC90FF1F0C91FF1F0D91FF1F8D
:1029D000F890FF1FD190FF1F002202710273034A7B
:1029E0004FF47A7181600260704700BF203A0000A6
:1029F0000C4B00221A700C4B196841F04001196011
:102A00000A4B0B491A704FF419720A6041F8042CF2
:102A1000084A27211170042151712021117180224F
:102A20001A707047D190FF1F348004400260064046
:102A30000CA004400160064010B50C46FFF7D8FF1B
:102A4000064B64001C70064B01221A70054BC02215
:102A50001A70054B4FF080721A6010BD006006407E
:102A6000D190FF1F0260064000E100E010B5374A38
:102A7000137803F01001C9B221B903F04002D2B2B9
:102A800042B92EE01021117003F04002D2B2002AA8
:102A9000F3D110BD13F004032D4A18D00023137096
:102AA0002C4A13702C4B1B68144603B198472278AC
:102AB0002A4B1AB927491A7001200870284AD021D8
:102AC00011701A78274B1A700122274B21E001213F
:102AD0001170264A1370224BC0221A7002331B78E1
:102AE00030E01F4A1F4C117811F0100117D013F07D
:102AF000010310D11C4917480A780078904205D983
:102B0000164B9B5C013223700A7000E02370144B5B
:102B1000D0221A7016E0C0231370237812E0144BF1
:102B20001220197003221349FEF7FCFF0F4A207888
:102B300013781F2B06D80649097819B10E49C854D5
:102B400001331370014B02221A7010BD036006405E
:102B5000A890FF1F0F91FF1FF490FF1FB090FF1F61
:102B600002600640046006401091FF1F0D91FF1F98
:102B7000F890FF1F7D290000D290FF1FC9B2FFF718
:102B80005BBFFFFF014B1960704700BFAC90FF1F98
:102B9000014B1960704700BFF490FF1F0148FFF719
:102BA0001BBF00BFFC90FF1F07B5054B054802A9DE
:102BB000042241F8083D036869465B6898470EBDEA
:102BC00031DE0B00FC90FF1F13B505E00848FFF74E
:102BD00089FE0DF804000134062CF7D16846FFF792
:102BE00033FB0246034801684C686946A0471CBD98
:102BF000FC90FF1FD08FFF1F38B5084B084C196899
:102C000005462046FFF7BAFF20460649FFF7BAFF00
:102C100020460549FFF7BCFF284638BD0C88FF1F3A
:102C2000FC90FF1FC92B0000A92B000070470D204E
:102C30000121FFF70DB9FFFF10B501210D20FFF7AE
:102C4000E7F86420FFF73EF9094C00210D20FFF75B
:102C5000DFF86420FFF736F9236806495B682046F1
:102C6000102298472046BDE81040FFF781B900BF09
:102C7000D08FFF1F383A000010B5054C2046FFF7F3
:102C8000BBFF0449044A2046BDE8104000F006B8E6
:102C90001191FF1F2D2C00006087FF1F034608467F
:102CA000194600F001B800BF30B405460C46134683
:102CB00002202946224630BC00F0DABB70B543F64C
:102CC000C02643F6C025C0F20006C0F20005761B00
:102CD000B61007D0043D002455F8043F013498474E
:102CE000A642F9D143F6E42643F6C025C0F2000619
:102CF000C0F20005761B00F0DDFEB61008D0043DE2
:102D0000002455F8043F01349847A642F9D170BD1C
:102D100070BD00BF48F610030146C1F6FF73186886
:102D200000F008B848F610030146C1F6FF731868B2
:102D300000F060BC2DE9F04F01F10B04162C83B0BC
:102D4000074630D924F00704E30F8C422CBF194604
:102D500043F0010100292FD1384600F071FBB4F592
:102D6000FC7F2ED24FEAD40C48F60416C1F6FF764B
:102D700006EBCC02D368934200F01182596803F14C
:102D80000808DA68384621F0030499681B195C6862
:102D9000CA6044F0010491605C6000F053FB40465F
:102DA00003B0BDE8F08F002310248C422CBF1946DD
:102DB00043F001010029CFD00C234FF000083B6005
:102DC000EDE75FEA542C04BF4FEAD40C4FEA4C0500
:102DD00040F08F8048F60416C1F6FF7606EB8505B5
:102DE000EB689D4206D10DE0002A80F25581DB6838
:102DF0009D4207D0596821F003010A1B0F2AF3DD19
:102E00000CF1FF3C0CF1010C48F604123369C1F6D9
:102E1000FF7202F1080E734508BFD2F8049022D069
:102E2000586820F00300011B0F2900F3848100295A
:102E3000C2F814E0C2F810E066DAB0F5007F80F066
:102E40004E81C1084FF0010802EBC100891008FA59
:102E500001F851688568D86048EA0109C2F8049011
:102E60009D60EB60836001224FEAAC0302FA03F33A
:102E70004B4554D819EA030F0DD193402CF0030CA5
:102E800019EA030F0CF1040C05D15B000CF1040CE2
:102E900019EA030FF9D006EBCC09E0464846C268B0
:102EA000904207D15BE1002980F28381D268904291
:102EB00000F05581556825F00305291B0F29F2DD27
:102EC00090461319D56844F0010058F8084F41F0B6
:102ED000010C50603846C3F804C0E560AC60736113
:102EE0003361C3F80CE0C3F808E0595000F0AAFAC7
:102EF00055E7BCF1040F00F2DE804FEA941C0CF1A0
:102F0000380C4FEA4C0565E71A1803F108083846F3
:102F1000536843F00103536000F094FA3FE7B5684B
:102F20006B6823F0030A544504D8C4EB0A030F2B43
:102F300000F3A48049F21419D6F80814C1F6FF79F9
:102F400005EB0A020131D9F80030234408BF03F130
:102F5000100B06D003F580530F3323F47F6323F067
:102F60000F0B38465946019200F06EFA019A411C47
:102F7000804600F06881824200F23181D9F8043045
:102F800042455B44C9F8043000F06681D6F8081465
:102F900048F60410C1F6FF70013117BFC2EB0802FA
:102FA000C0F808849B18C9F8043018F007033846A5
:102FB0001FBFC3F10802C3F58053904403F1080218
:102FC00008EB0B0308BF4FF480521B051B0DC3EB2E
:102FD000020B594600F038FA431C00F04981C8EB57
:102FE0000001594441F00101D9F80430B54249F2D9
:102FF0001412C6F808805B44C1F6FF72C8F80410CA
:10300000C9F8043018D0BAF10F0F40F20B81AAF1C1
:103010000C00696820F007004FF0050C05EB000E6E
:103020000F2801F0010140EA01016960CEF804C0F7
:10303000CEF808C000F2208149F21412D9F82C1001
:10304000C1F6FF72B5688B42D9F8301088BFD362E1
:1030500049F21412C1F6FF728B4288BF13636A688B
:1030600022F003029442C4EB020301D80F2B05DCCB
:1030700038464FF0000800F0E5F990E62A1943F0D1
:10308000010344F0010438466C6005F10808536000
:10309000B26000F0D7F982E65918DA689C683846C1
:1030A0004D6803F1080845F00105E26094604D6049
:1030B00000F0C8F973E6BCF1140F9CBF0CF15B0C77
:1030C0004FEA4C057FF686AEBCF1540F00F29380B8
:1030D0004FEA143C0CF16E0C4FEA4C057AE6420ABA
:1030E000042A75D9142A9CBF02F15B094FEA4905ED
:1030F00008D9542A00F2C9804FEA103909F16E0943
:103100004FEA490506EB850548F60418C1F6FF7835
:10311000AA68AA4279D0516821F00301884202D2FC
:1031200092689542F7D1D068D6F80490D8609A603A
:10313000D360836097E61D1941F00106556144F0A4
:103140000104156138465C6003F10808C5F80CE01D
:10315000C5F808E06E60695000F074F91FE608F1E8
:103160000108083018F0030F7FF499AE4A461CF0AE
:10317000030FA2F108010CF1FF3C00F09E801268E1
:103180008A42F4D072685B0093423FF6C8AE002BCF
:103190003FF4C5AE1A4200F09580C4467BE603F1C9
:1031A00008025B699A4208BF0CF1020C3FF42CAE96
:1031B000E4E590465519D368384658F8082F6968F1
:1031C000D36041F001019A60696000F03BF9E6E5E7
:1031D0004FEA901909F138094FEA490592E7B542DB
:1031E00048F60413C1F6FF733FF4C8AE9D686A68E1
:1031F00022F0030236E7BCF5AA7F19D84FEAD43C87
:103200000CF1770C4FEA4C05E4E50125D8F80410E1
:103210004FEAA909104605FA09F545EA0109C8F877
:10322000049083E701234546C8F80430002219E7DB
:1032300040F254539C450BD84FEA944C0CF17C0C53
:103240004FEA4C05C6E5B5686A6822F0030209E753
:10325000FC254FF07E0CBDE51105090D00297FF41A
:1032600095AEB2680BEB0A0141F001015160E3E653
:1032700001214FF0000BB7E6384605F10801019235
:1032800000F0B8F9019A5368D6E6B2F5AA7F06D8DD
:103290004FEAD03909F177094FEA490532E740F2A0
:1032A0005451FC258A424FF07E099EBF4FEA904957
:1032B00009F17C094FEA490524E7726822EA030212
:1032C000726060E75B0008F1040863E7032A2DE9F8
:1032D000F00F09D82AB10023CC5CC45401339342C7
:1032E000FAD1BDE8F00F7047830702440ED0441CAA
:1032F0004D1C15F8017C04F00306234601342946D1
:10330000013504F8027C002EF3D100E0034611F0F1
:1033100003046DD0D71A0D1B032F2E6819DDC4F1DD
:10332000040C4FEAC4081C1D4FEACC0C55F8047F6E
:10333000C4EB0209234604310434B9F1030F26FA21
:1033400008FA07FA0CFB3E464BEA0A0744F8087CE9
:10335000ECDC9A42C5D901330131013211F8014C3C
:1033600001330131934203F8024CF7D1B9E70C68FD
:103370004033403143F8404C51F83C4C43F83C4C0E
:1033800051F8384C43F8384C51F8344C43F8344C2D
:1033900051F8304C43F8304C51F82C4C43F82C4C3D
:1033A00051F8284C43F8284C51F8244C43F8244C4D
:1033B00051F8204C43F8204C51F81C4C43F81C4C5D
:1033C00051F8184C43F8184C51F8144C43F8144C6D
:1033D00051F8104C43F8104C51F80C4C43F80C4C7D
:1033E00051F8084C43F8084C51F8044C43F8044C8D
:1033F000D41A3F2CBBDC11E00C681033103143F8B9
:10340000104C51F80C4C43F80C4C51F8084C43F854
:10341000084C51F8044C43F8044CD41A0F2CEBDC44
:10342000032C96DD1C1D0D1D55F8047C161B234630
:10343000294604340435032E44F8087CF4DC88E77C
:10344000704700BF704700BF38B549F25814C1F645
:10345000FF740546084600232360FDF7B7FB431CB5
:1034600000D038BD2368002BFBD02B6038BD00BFD7
:103470002DE9F04143F64C24C0F2000484B0074625
:103480002568AC6C002C42D066681F2E1ADD42F60F
:103490001554C0F2000424B94FF0FF3004B0BDE869
:1034A000F0818C20039102920193FFF733FC039982
:1034B000029A019B04460028EED0A86C002684E8FE
:1034C0004100AC64DFB1D4F8886026B3D6F800813F
:1034D00065680120022F05F1200C00FA05F046F87E
:1034E000252048EA000246F82C3008BFD6F80431FF
:1034F000C6F8002104BF1843C6F8040100E065685F
:10350000AB1C00200135656044F82310C6E705F1C7
:103510004C04AC64B8E742F61550C0F20000002835
:10352000BAD04FF48470039102920193FFF7F2FB3B
:103530000399029A019B06460028ADD00020C6F8E8
:103540000001C6F804018046C4F88860C0E700BFE7
:10355000F8B548F60414C1F6FF740F460546FFF7A8
:103560006FFFA3685E6826F0030606F6EF73DF1BA5
:103570003F0B013F3F03B7F5805F07DB0021284683
:10358000FFF762FFA3689B19984204D02846FFF713
:1035900059FF0020F8BD79422846FFF755FF01305A
:1035A00010D049F21813A168C1F6FF73F61B284624
:1035B00046F001061A684E60D71B1F60FFF742FFF6
:1035C0000120F8BD00212846FFF73EFFA368C21A7C
:1035D0000F2ADBDD48F60C5449F21811C1F6FF74CE
:1035E000C1F6FF7142F001025A602368C01A0860F8
:1035F000CCE700BF2DE9F0410E46804600295CD0A3
:10360000FFF71EFF48F6041556F8041CC1F6FF75B7
:10361000A6F1080421F00103AF68E2189742506850
:1036200020F0030067D011F00101506035D0002177
:103630001618766816F0010F06D11B18906800293D
:103640004DD0D268C260906043F00102E3506260E6
:10365000F1B9B3F5007F32D35A0A042A6CD898091D
:103660003830410005EB810548F60411C1F6FF71C1
:10367000AA68AA426BD0516821F003018B4202D2A2
:1036800092689542F7D1D368E360A260D4609C60F1
:103690004046BDE8F041FFF7D5BE56F8086C05F18D
:1036A000080CA41B9B19A668664543D0D4F80CC02F
:1036B000C6F80CC0CCF80860BAE7BDE8F081DB08BA
:1036C0000121686805EBC3029B1001FA03F3E26075
:1036D000916818436860A160CC609460D8E7294E77
:1036E000B042AED16C6143F001022C61E060A06099
:1036F0006260E350CCE7C018CB0707D456F8083C0B
:10370000E41AC018A268E368D3609A6048F61052C1
:1037100040F00103C1F6FF726360AC601368984229
:10372000B6D349F214134046C1F6FF731968FFF788
:103730000FFFADE701217BE702F15B004100142A96
:1037400090D9542A0CD8180B6E3041008AE7012614
:103750004D688010134606FA00F005434D6093E76C
:10376000B2F5AA7F03D8D80B773041007AE740F250
:1037700054518A4203D8980C7C30410072E7FC21F6
:103780007E206FE70C89FF1F000000000000000092
:10379000350A0000590A00007D0A0000750A000081
:1037A000790A0000710A00008B0A00009D0A0000DF
:1037B000870A0000810A00006D0A0000690A000003
:1037C000F9090000050A0000110A00001D0A0000A6
:1037D000410A0000290A000000000000000000006B
:1037E0009D1A0000000000004008FE4340A0044075
:1037F0004408FE4344A004400018FE4300C00440B7
:103800003000FE43309004403400FE4334900440C6
:103810001C18FE431CC004401018FE4310C0044096
:103820000818FE4308C004400C18FE430CC00440B6
:103830000C10FE430CB004401010FE4310B00440C6
:103840001810FE4318B004401C10FE431CB0044086
:103850001410FE4314B004400418FE4304C0044096
:103860000010FE4300B004400008FE4300A00440E6
:103870000408FE4304A004400C08FE430CA00440CE
:103880000808FE4308A004401418FE4314C0044076
:103890001818FE4318C004400410FE4304B004404E
:1038A0000810FE4308B004401400FE431490044086
:1038B0004C08FE434CA004400420FE4304D00440C6
:1038C0002410FE4324B004402010FE4320B00440E6
:1038D0002810FE4328B004402C10FE432CB00440B6
:1038E0000020FE4300D004404808FE4348A00440A6
:1038F0001000FE43109004400D0AFFFFFFFFFFFF82
:10390000000000000000000005200000FD1F000076
:1039100017200000132000000F2000000B200000E3
:1039200000151915000100006887FF1F1200000034
:10393000000200009287FF1F430000000003000008
:10394000EC87FF1F00000000010309047A87FF1FB6
:103950000000000002030904D687FF1F00000000DA
:1039600003030904F087FF1F0000000000000000AF
:103970000000000000000000000000000000000047
:10398000C90A0000ED0A0000110B0000090B00003D
:103990000D0B0000050B00001F0B0000310B000099
:1039A0001B0B0000150B0000010B0000FD0A0000BE
:1039B000C9090000D5090000E1090000ED09000077
:1039C000D50A0000BD0A0000000000000000000051
:1039D000ED27000011280000352800002D280000E8
:1039E0003128000029280000432800005528000045
:1039F0003F28000039280000252800002128000069
:103A0000B1270000BD270000C9270000D52700000E
:103A1000F9270000E127000000000000000000007E
:103A20009528000031290000D1280000E528000079
:103A30000D290000CD280000536C61766520697364
:103A400020776F726B696E6700FFFFFF1488FF1F9E
:103A50004300000000000000000000000000000023
:103A60000000000000000000000000000000000056
:103A70000000000000000000000000000000000046
:103A80000000000000000000000000000000000036
:103A90000000000000000000000000000000000026
:103AA0000000000000000000000000000000000016
:103AB00000000000F8B500BFF8BC08BC9E46704787
:103AC00099040000550B0000650C0000E11A00008D
:103AD0001D20000095270000792800009D2B000084
:043AE000792C00003D
:083AE400B8F1FF7F01000000B2
:103AEC00000000005C91FF1F120100020200004068
:103AFC00C016830400010102030118035400650081
:103B0C0065006E00730079006400750069006E003A
:103B1C006F0009024300020100C0320904000001D9
:103B2C0002020100052400100105240101010424F6
:103B3C000206052406000107058203100040090453
:103B4C000100020A000000070503024000000705FF
:103B5C008402400000001603550053004200200070
:103B6C00530065007200690061006C0004030904D5
:103B7C000C0300000000000000000000000000002A
:103B8C000000000000000A04FFFFFFFF020000001D
:103B9C001488FF1F00000000943A0000743A0000E3
:103BAC00543A00000000000000000000000000007B
:103BBC0000000000503A000000000000000000006F
:103BCC0000000000000000000000000000000000E9
:103BDC0000000000000000000000000000000000D9
:103BEC0000000000000000000000000000000000C9
:103BFC0000000000000000000000000000000000B9
:103C0C0000000000000000000000000000000000A8
:103C1C000000000000000000000000000000000098
:103C2C000000000000000000000000000000000088
:103C3C000000000000000000000000000000000078
:103C4C000000000000000000000000000000000068
:103C5C000000000000000000000000000000000058
:103C6C000000000000000000000000000000000048
:103C7C000000000000000000000000000000000038
:103C8C000000000000000000000000000489FF1F7D
:103C9C000489FF1F0C89FF1F0C89FF1F1489FF1F4C
:103CAC001489FF1F1C89FF1F1C89FF1F2489FF1FFC
:103CBC002489FF1F2C89FF1F2C89FF1F3489FF1FAC
:103CCC003489FF1F3C89FF1F3C89FF1F4489FF1F5C
:103CDC004489FF1F4C89FF1F4C89FF1F5489FF1F0C
:103CEC005489FF1F5C89FF1F5C89FF1F6489FF1FBC
:103CFC006489FF1F6C89FF1F6C89FF1F7489FF1F6C
:103D0C007489FF1F7C89FF1F7C89FF1F8489FF1F1B
:103D1C008489FF1F8C89FF1F8C89FF1F9489FF1FCB
:103D2C009489FF1F9C89FF1F9C89FF1FA489FF1F7B
:103D3C00A489FF1FAC89FF1FAC89FF1FB489FF1F2B
:103D4C00B489FF1FBC89FF1FBC89FF1FC489FF1FDB
:103D5C00C489FF1FCC89FF1FCC89FF1FD489FF1F8B
:103D6C00D489FF1FDC89FF1FDC89FF1FE489FF1F3B
:103D7C00E489FF1FEC89FF1FEC89FF1FF489FF1FEB
:103D8C00F489FF1FFC89FF1FFC89FF1F048AFF1F9A
:103D9C00048AFF1F0C8AFF1F0C8AFF1F148AFF1F47
:103DAC00148AFF1F1C8AFF1F1C8AFF1F248AFF1FF7
:103DBC00248AFF1F2C8AFF1F2C8AFF1F348AFF1FA7
:103DCC00348AFF1F3C8AFF1F3C8AFF1F448AFF1F57
:103DDC00448AFF1F4C8AFF1F4C8AFF1F548AFF1F07
:103DEC00548AFF1F5C8AFF1F5C8AFF1F648AFF1FB7
:103DFC00648AFF1F6C8AFF1F6C8AFF1F748AFF1F67
:103E0C00748AFF1F7C8AFF1F7C8AFF1F848AFF1F16
:103E1C00848AFF1F8C8AFF1F8C8AFF1F948AFF1FC6
:103E2C00948AFF1F9C8AFF1F9C8AFF1FA48AFF1F76
:103E3C00A48AFF1FAC8AFF1FAC8AFF1FB48AFF1F26
:103E4C00B48AFF1FBC8AFF1FBC8AFF1FC48AFF1FD6
:103E5C00C48AFF1FCC8AFF1FCC8AFF1FD48AFF1F86
:103E6C00D48AFF1FDC8AFF1FDC8AFF1FE48AFF1F36
:103E7C00E48AFF1FEC8AFF1FEC8AFF1FF48AFF1FE6
:103E8C00F48AFF1FFC8AFF1FFC8AFF1F048BFF1F95
:103E9C00048BFF1F0C8BFF1F0C8BFF1F148BFF1F42
:103EAC00148BFF1F1C8BFF1F1C8BFF1F248BFF1FF2
:103EBC00248BFF1F2C8BFF1F2C8BFF1F348BFF1FA2
:103ECC00348BFF1F3C8BFF1F3C8BFF1F448BFF1F52
:103EDC00448BFF1F4C8BFF1F4C8BFF1F548BFF1F02
:103EEC00548BFF1F5C8BFF1F5C8BFF1F648BFF1FB2
:103EFC00648BFF1F6C8BFF1F6C8BFF1F748BFF1F62
:103F0C00748BFF1F7C8BFF1F7C8BFF1F848BFF1F11
:103F1C00848BFF1F8C8BFF1F8C8BFF1F948BFF1FC1
:103F2C00948BFF1F9C8BFF1F9C8BFF1FA48BFF1F71
:103F3C00A48BFF1FAC8BFF1FAC8BFF1FB48BFF1F21
:103F4C00B48BFF1FBC8BFF1FBC8BFF1FC48BFF1FD1
:103F5C00C48BFF1FCC8BFF1FCC8BFF1FD48BFF1F81
:103F6C00D48BFF1FDC8BFF1FDC8BFF1FE48BFF1F31
:103F7C00E48BFF1FEC8BFF1FEC8BFF1FF48BFF1FE1
:103F8C00F48BFF1FFC8BFF1FFC8BFF1F048CFF1F90
:103F9C00048CFF1F0C8CFF1F0C8CFF1F148CFF1F3D
:103FAC00148CFF1F1C8CFF1F1C8CFF1F248CFF1FED
:103FBC00248CFF1F2C8CFF1F2C8CFF1F348CFF1F9D
:103FCC00348CFF1F3C8CFF1F3C8CFF1F448CFF1F4D
:103FDC00448CFF1F4C8CFF1F4C8CFF1F548CFF1FFD
:103FEC00548CFF1F5C8CFF1F5C8CFF1F648CFF1FAD
:103FFC00648CFF1F6C8CFF1F6C8CFF1F748CFF1F5D
:10400C00748CFF1F7C8CFF1F7C8CFF1F848CFF1F0C
:10401C00848CFF1F8C8CFF1F8C8CFF1F948CFF1FBC
:10402C00948CFF1F9C8CFF1F9C8CFF1FA48CFF1F6C
:10403C00A48CFF1FAC8CFF1FAC8CFF1FB48CFF1F1C
:10404C00B48CFF1FBC8CFF1FBC8CFF1FC48CFF1FCC
:10405C00C48CFF1FCC8CFF1FCC8CFF1FD48CFF1F7C
:10406C00D48CFF1FDC8CFF1FDC8CFF1FE48CFF1F2C
:10407C00E48CFF1FEC8CFF1FEC8CFF1FF48CFF1FDC
:10408C00F48CFF1FFC8CFF1FFC8CFF1FFFFFFFFF3E
:04409C00000002001E
:00000001FF
